{
  "contractName": "CandleAuction",
  "abi": [
    {
      "inputs": [
        {
          "internalType": "uint256",
          "name": "_biddingTime",
          "type": "uint256"
        }
      ],
      "stateMutability": "nonpayable",
      "type": "constructor"
    },
    {
      "anonymous": false,
      "inputs": [
        {
          "indexed": false,
          "internalType": "address",
          "name": "winner",
          "type": "address"
        },
        {
          "indexed": false,
          "internalType": "uint256",
          "name": "amount",
          "type": "uint256"
        }
      ],
      "name": "AuctionEnded",
      "type": "event"
    },
    {
      "anonymous": false,
      "inputs": [
        {
          "indexed": false,
          "internalType": "address",
          "name": "bidder",
          "type": "address"
        },
        {
          "indexed": false,
          "internalType": "uint256",
          "name": "amount",
          "type": "uint256"
        }
      ],
      "name": "HighestBidIncreased",
      "type": "event"
    },
    {
      "inputs": [],
      "name": "auctionEndTime",
      "outputs": [
        {
          "internalType": "uint256",
          "name": "",
          "type": "uint256"
        }
      ],
      "stateMutability": "view",
      "type": "function"
    },
    {
      "inputs": [],
      "name": "highestBid",
      "outputs": [
        {
          "internalType": "uint256",
          "name": "",
          "type": "uint256"
        }
      ],
      "stateMutability": "view",
      "type": "function"
    },
    {
      "inputs": [],
      "name": "highestBidder",
      "outputs": [
        {
          "internalType": "address",
          "name": "",
          "type": "address"
        }
      ],
      "stateMutability": "view",
      "type": "function"
    },
    {
      "inputs": [],
      "name": "owner",
      "outputs": [
        {
          "internalType": "address",
          "name": "",
          "type": "address"
        }
      ],
      "stateMutability": "view",
      "type": "function"
    },
    {
      "inputs": [
        {
          "internalType": "address",
          "name": "",
          "type": "address"
        }
      ],
      "name": "pendingReturns",
      "outputs": [
        {
          "internalType": "uint256",
          "name": "",
          "type": "uint256"
        }
      ],
      "stateMutability": "view",
      "type": "function"
    },
    {
      "inputs": [],
      "name": "bid",
      "outputs": [],
      "stateMutability": "payable",
      "type": "function"
    },
    {
      "inputs": [],
      "name": "withdraw",
      "outputs": [
        {
          "internalType": "bool",
          "name": "",
          "type": "bool"
        }
      ],
      "stateMutability": "nonpayable",
      "type": "function"
    },
    {
      "inputs": [],
      "name": "auctionEnd",
      "outputs": [],
      "stateMutability": "nonpayable",
      "type": "function"
    }
  ],
  "bytecode": "0x608060405234801561000f575f80fd5b5060405162000c2138038062000c21833981810160405281019061003391906100c1565b335f806101000a81548173ffffffffffffffffffffffffffffffffffffffff021916908373ffffffffffffffffffffffffffffffffffffffff160217905550804261007e9190610119565b6001819055505061014c565b5f80fd5b5f819050919050565b6100a08161008e565b81146100aa575f80fd5b50565b5f815190506100bb81610097565b92915050565b5f602082840312156100d6576100d561008a565b5b5f6100e3848285016100ad565b91505092915050565b7f4e487b71000000000000000000000000000000000000000000000000000000005f52601160045260245ffd5b5f6101238261008e565b915061012e8361008e565b9250828201905080821115610146576101456100ec565b5b92915050565b610ac7806200015a5f395ff3fe60806040526004361061007a575f3560e01c80634b449cba1161004d5780634b449cba146101045780638da5cb5b1461012e57806391f9015714610158578063d57bde79146101825761007a565b80631998aeef1461007e57806326b387bb146100885780632a24f46c146100c45780633ccfd60b146100da575b5f80fd5b6100866101ac565b005b348015610093575f80fd5b506100ae60048036038101906100a99190610715565b610337565b6040516100bb9190610758565b60405180910390f35b3480156100cf575f80fd5b506100d861034c565b005b3480156100e5575f80fd5b506100ee61054a565b6040516100fb919061078b565b60405180910390f35b34801561010f575f80fd5b50610118610663565b6040516101259190610758565b60405180910390f35b348015610139575f80fd5b50610142610669565b60405161014f91906107b3565b60405180910390f35b348015610163575f80fd5b5061016c61068c565b60405161017991906107b3565b60405180910390f35b34801561018d575f80fd5b506101966106b1565b6040516101a39190610758565b60405180910390f35b6001544211156101f1576040517f08c379a00000000000000000000000000000000000000000000000000000000081526004016101e890610826565b60405180910390fd5b6003543411610235576040517f08c379a000000000000000000000000000000000000000000000000000000000815260040161022c9061088e565b60405180910390fd5b5f600354146102b55760035460045f60025f9054906101000a900473ffffffffffffffffffffffffffffffffffffffff1673ffffffffffffffffffffffffffffffffffffffff1673ffffffffffffffffffffffffffffffffffffffff1681526020019081526020015f205f8282546102ad91906108d9565b925050819055505b3360025f6101000a81548173ffffffffffffffffffffffffffffffffffffffff021916908373ffffffffffffffffffffffffffffffffffffffff160217905550346003819055507ff4757a49b326036464bec6fe419a4ae38c8a02ce3e68bf0809674f6aab8ad300333460405161032d92919061090c565b60405180910390a1565b6004602052805f5260405f205f915090505481565b5f8054906101000a900473ffffffffffffffffffffffffffffffffffffffff1673ffffffffffffffffffffffffffffffffffffffff163373ffffffffffffffffffffffffffffffffffffffff16146103d9576040517f08c379a00000000000000000000000000000000000000000000000000000000081526004016103d09061097d565b60405180910390fd5b60015442101561041e576040517f08c379a0000000000000000000000000000000000000000000000000000000008152600401610415906109e5565b60405180910390fd5b60055f9054906101000a900460ff161561046d576040517f08c379a000000000000000000000000000000000000000000000000000000000815260040161046490610a73565b60405180910390fd5b600160055f6101000a81548160ff0219169083151502179055507fdaec4582d5d9595688c8c98545fdd1c696d41c6aeaeb636737e84ed2f5c00eda60025f9054906101000a900473ffffffffffffffffffffffffffffffffffffffff166003546040516104db92919061090c565b60405180910390a15f8054906101000a900473ffffffffffffffffffffffffffffffffffffffff1673ffffffffffffffffffffffffffffffffffffffff166108fc60035490811502906040515f60405180830381858888f19350505050158015610547573d5f803e3d5ffd5b50565b5f8060045f3373ffffffffffffffffffffffffffffffffffffffff1673ffffffffffffffffffffffffffffffffffffffff1681526020019081526020015f205490505f81111561065a575f60045f3373ffffffffffffffffffffffffffffffffffffffff1673ffffffffffffffffffffffffffffffffffffffff1681526020019081526020015f20819055503373ffffffffffffffffffffffffffffffffffffffff166108fc8290811502906040515f60405180830381858888f19350505050610659578060045f3373ffffffffffffffffffffffffffffffffffffffff1673ffffffffffffffffffffffffffffffffffffffff1681526020019081526020015f20819055505f915050610660565b5b60019150505b90565b60015481565b5f8054906101000a900473ffffffffffffffffffffffffffffffffffffffff1681565b60025f9054906101000a900473ffffffffffffffffffffffffffffffffffffffff1681565b60035481565b5f80fd5b5f73ffffffffffffffffffffffffffffffffffffffff82169050919050565b5f6106e4826106bb565b9050919050565b6106f4816106da565b81146106fe575f80fd5b50565b5f8135905061070f816106eb565b92915050565b5f6020828403121561072a576107296106b7565b5b5f61073784828501610701565b91505092915050565b5f819050919050565b61075281610740565b82525050565b5f60208201905061076b5f830184610749565b92915050565b5f8115159050919050565b61078581610771565b82525050565b5f60208201905061079e5f83018461077c565b92915050565b6107ad816106da565b82525050565b5f6020820190506107c65f8301846107a4565b92915050565b5f82825260208201905092915050565b7f41756374696f6e20616c726561647920656e6465642e000000000000000000005f82015250565b5f6108106016836107cc565b915061081b826107dc565b602082019050919050565b5f6020820190508181035f83015261083d81610804565b9050919050565b7f546865726520616c7265616479206973206120686967686572206269642e00005f82015250565b5f610878601e836107cc565b915061088382610844565b602082019050919050565b5f6020820190508181035f8301526108a58161086c565b9050919050565b7f4e487b71000000000000000000000000000000000000000000000000000000005f52601160045260245ffd5b5f6108e382610740565b91506108ee83610740565b9250828201905080821115610906576109056108ac565b5b92915050565b5f60408201905061091f5f8301856107a4565b61092c6020830184610749565b9392505050565b7f596f7520617265206e6f74207468652061756374696f6e206f776e65722e00005f82015250565b5f610967601e836107cc565b915061097282610933565b602082019050919050565b5f6020820190508181035f8301526109948161095b565b9050919050565b7f41756374696f6e206e6f742079657420656e6465642e000000000000000000005f82015250565b5f6109cf6016836107cc565b91506109da8261099b565b602082019050919050565b5f6020820190508181035f8301526109fc816109c3565b9050919050565b7f61756374696f6e456e642068617320616c7265616479206265656e2063616c6c5f8201527f65642e0000000000000000000000000000000000000000000000000000000000602082015250565b5f610a5d6023836107cc565b9150610a6882610a03565b604082019050919050565b5f6020820190508181035f830152610a8a81610a51565b905091905056fea264697066735822122095dc4216be85455d991c23824985e12f765c2c244a9af7fc8fb44c8cd30badd964736f6c63430008150033",
  "immutableReferences": {},
  "source": "// SPDX-License-Identifier: MIT\r\npragma solidity ^0.8.0;\r\n\r\ncontract CandleAuction {\r\n    address public owner;\r\n    uint public auctionEndTime;\r\n    address public highestBidder;\r\n    uint public highestBid;\r\n    mapping(address => uint) public pendingReturns;\r\n    bool ended;\r\n\r\n    event HighestBidIncreased(address bidder, uint amount);\r\n    event AuctionEnded(address winner, uint amount);\r\n\r\n    constructor(uint _biddingTime) {\r\n        owner = msg.sender;\r\n        auctionEndTime = block.timestamp + _biddingTime;\r\n    }\r\n\r\n    function bid() public payable {\r\n        require(\r\n            block.timestamp <= auctionEndTime,\r\n            \"Auction already ended.\"\r\n        );\r\n\r\n        require(\r\n            msg.value > highestBid,\r\n            \"There already is a higher bid.\"\r\n        );\r\n\r\n        if (highestBid != 0) {\r\n            pendingReturns[highestBidder] += highestBid;\r\n        }\r\n        highestBidder = msg.sender;\r\n        highestBid = msg.value;\r\n        emit HighestBidIncreased(msg.sender, msg.value);\r\n    }\r\n\r\n    function withdraw() public returns (bool) {\r\n        uint amount = pendingReturns[msg.sender];\r\n        if (amount > 0) {\r\n            pendingReturns[msg.sender] = 0;\r\n\r\n            if (!payable(msg.sender).send(amount)) {\r\n                pendingReturns[msg.sender] = amount;\r\n                return false;\r\n            }\r\n        }\r\n        return true;\r\n    }\r\n\r\n    function auctionEnd() public {\r\n        require(msg.sender == owner, \"You are not the auction owner.\");\r\n        require(block.timestamp >= auctionEndTime, \"Auction not yet ended.\");\r\n        require(!ended, \"auctionEnd has already been called.\");\r\n\r\n        ended = true;\r\n        emit AuctionEnded(highestBidder, highestBid);\r\n\r\n        payable(owner).transfer(highestBid);\r\n    }\r\n}\r\n",
  "sourcePath": "C:\\Users\\HP\\Desktop\\Blockchain\\contracts\\CandleAuction.sol",
  "compiler": {
    "name": "solc",
    "version": "0.8.21+commit.d9974bed.Emscripten.clang"
  },
  "schemaVersion": "3.4.16",
  "updatedAt": "2024-07-25T19:03:28.627Z",
  "devdoc": {
    "kind": "dev",
    "methods": {},
    "version": 1
  },
  "userdoc": {
    "kind": "user",
    "methods": {},
    "version": 1
  }
}